:020000005F2976
:10000600103083120313FD00FD0B072800000800C3
:0400160000000800DE
:10001A00083083120313FC002330FD00FD0B132864
:06002A00FC0B1328080086
:1000300083120313E41B1E2888131F288817641BD0
:100040002328081324280817E41A282888122928A6
:100050008816641A2D2808122E2808165E183228D1
:1000600008153328081188150B208811E4193A283F
:1000700088133B28881764193F280813402808175D
:10008000E41844288812452888166418492808125C
:100090004A2808165E184E2808154F28081188159A
:1000A0000B2088115E1C56280D20572803200800BD
:1000B000831203135E106308E40018205E14080026
:0E00C000831203135D088A005C0882000800AA
:1000CE007928803083120313DF008C28C030DF00C4
:1000DE008C289430DF008C28D430DF008C288030C0
:1000EE00DF008C28831203135F08013A0319682876
:1000FE005F08023A03196D285F08033A0319702846
:10010E005F08043A0319732876286003F0005F082D
:10011E00F0077008DF007008E40018205E10E2019E
:10012E0062086107840000080319A52862086107A8
:10013E0084000008E3005820E20A97285E140800A5
:10014E0083160313881108110812881208138813D6
:10015E0083128811081188130813881208120D20B3
:10016E000D200D208816081688150B2088110D20DD
:10017E0088150B2088110D2088150B2088110D2055
:10018E00081288150B2088110D2088150B20881158
:10019E008812881788150B2088110D2088130816D1
:1001AE0088150B208811081288150B2088110D2038
:1001BE0088150B208811081688150B2088110D2024
:1001CE00081288150B20881188170817881608162C
:0C01DE0088150B2088110D205E1408000D
:1001EA0083120313DA0A0319DB0A5B084E3C031D68
:1001FA0000295A08203C031C0429213087005B0887
:10020A004E3C031D0A295A08203C031816295B088C
:10021A00753C031D12295A08303C031C1629133059
:10022A0087005B08753C031D1C295A08303C0318DB
:10023A0028295B08C33C031D24295A08503C031C87
:10024A002829143087005B08C33C031D2E295A084D
:10025A00503C03183A295B08EA3C031D36295A0820
:10026A00603C031C3A29123087005B08EA3C031DF4
:10027A0040295A08603C03184429DA01DB010800C6
:10028A000F30831603139F0407309C0487018312DF
:0C029A008601C0308B008B160B11080091
:1002A60060208A110A128000840ADC0A0319DD0A1A
:0802B600F003031D53290800A9
:1002BE00F22145218316870183128701A7200C3076
:1002CE00E40018200130E40018200130DF00013076
:1002DE00E0002D30E10067200230DF000130E00049
:1002EE002030E1006720F520861F94290C30E400B1
:1002FE0018200C30E40018200130E40018200130E2
:10030E00DF000130E0004A30E10067200230DF00FC
:10031E000130E0003D30E1006720861E992908304B
:10032E00E4001820061F9E290130E4001820061E46
:10033E00B1291830E40018200330FB008A30FC008D
:10034E005530FD00FD0BA929FC0BA929FB0BA92992
:08035E00000000007A29B22919
:1003E400203084003A3083120313F000B830DC006C
:0803F4000130DD005321080077
:1003700048346134763461342034623475346C34FA
:0A038000753474346C3475340034A5
:10038A0049347334743461346E34623475346C3481
:10039A00203433343034303420346B346D34003408
:1003AA0048346134763461342034623475346C34C0
:0A03BA00753474346C34753400346B
:1003C40049347334743461346E34623475346C3447
:1003D400203433343034303420346B346D340034CE
:02400E004A2F37
:00000001FF
